{
  "contractName": "LandRegistration",
  "abi": [
    {
      "inputs": [],
      "stateMutability": "nonpayable",
      "type": "constructor"
    },
    {
      "inputs": [],
      "name": "isAdmin",
      "outputs": [
        {
          "internalType": "bool",
          "name": "",
          "type": "bool"
        }
      ],
      "stateMutability": "view",
      "type": "function",
      "constant": true
    },
    {
      "inputs": [
        {
          "internalType": "string",
          "name": "_password",
          "type": "string"
        },
        {
          "internalType": "string",
          "name": "_nationalId",
          "type": "string"
        }
      ],
      "name": "addUser",
      "outputs": [],
      "stateMutability": "nonpayable",
      "type": "function"
    }
  ],
  "bytecode": "0x608060405234801561001057600080fd5b5033600160006101000a81548173ffffffffffffffffffffffffffffffffffffffff021916908373ffffffffffffffffffffffffffffffffffffffff16021790555061085c806100616000396000f3fe608060405234801561001057600080fd5b50600436106100365760003560e01c8063079eaf341461003b578063b6db75a014610057575b600080fd5b61005560048036038101906100509190610408565b610075565b005b61005f610256565b60405161006c919061049b565b60405180910390f35b600073ffffffffffffffffffffffffffffffffffffffff166000803373ffffffffffffffffffffffffffffffffffffffff1673ffffffffffffffffffffffffffffffffffffffff16815260200190815260200160002060000160009054906101000a900473ffffffffffffffffffffffffffffffffffffffff1673ffffffffffffffffffffffffffffffffffffffff1614610145576040517f08c379a000000000000000000000000000000000000000000000000000000000815260040161013c90610513565b60405180910390fd5b60008060003373ffffffffffffffffffffffffffffffffffffffff1673ffffffffffffffffffffffffffffffffffffffff1681526020019081526020016000209050338160000160006101000a81548173ffffffffffffffffffffffffffffffffffffffff021916908373ffffffffffffffffffffffffffffffffffffffff160217905550828160010190816101db9190610754565b50818160020190816101ed9190610754565b506002339080600181540180825580915050600190039060005260206000200160009091909190916101000a81548173ffffffffffffffffffffffffffffffffffffffff021916908373ffffffffffffffffffffffffffffffffffffffff160217905550505050565b60003373ffffffffffffffffffffffffffffffffffffffff16600160009054906101000a900473ffffffffffffffffffffffffffffffffffffffff1673ffffffffffffffffffffffffffffffffffffffff1614905090565b6000604051905090565b600080fd5b600080fd5b600080fd5b600080fd5b6000601f19601f8301169050919050565b7f4e487b7100000000000000000000000000000000000000000000000000000000600052604160045260246000fd5b610315826102cc565b810181811067ffffffffffffffff82111715610334576103336102dd565b5b80604052505050565b60006103476102ae565b9050610353828261030c565b919050565b600067ffffffffffffffff821115610373576103726102dd565b5b61037c826102cc565b9050602081019050919050565b82818337600083830152505050565b60006103ab6103a684610358565b61033d565b9050828152602081018484840111156103c7576103c66102c7565b5b6103d2848285610389565b509392505050565b600082601f8301126103ef576103ee6102c2565b5b81356103ff848260208601610398565b91505092915050565b6000806040838503121561041f5761041e6102b8565b5b600083013567ffffffffffffffff81111561043d5761043c6102bd565b5b610449858286016103da565b925050602083013567ffffffffffffffff81111561046a576104696102bd565b5b610476858286016103da565b9150509250929050565b60008115159050919050565b61049581610480565b82525050565b60006020820190506104b0600083018461048c565b92915050565b600082825260208201905092915050565b7f5573657220616c72656164792072656769737465726564000000000000000000600082015250565b60006104fd6017836104b6565b9150610508826104c7565b602082019050919050565b6000602082019050818103600083015261052c816104f0565b9050919050565b600081519050919050565b7f4e487b7100000000000000000000000000000000000000000000000000000000600052602260045260246000fd5b6000600282049050600182168061058557607f821691505b6020821081036105985761059761053e565b5b50919050565b60008190508160005260206000209050919050565b60006020601f8301049050919050565b600082821b905092915050565b6000600883026106007fffffffffffffffffffffffffffffffffffffffffffffffffffffffffffffffff826105c3565b61060a86836105c3565b95508019841693508086168417925050509392505050565b6000819050919050565b6000819050919050565b600061065161064c61064784610622565b61062c565b610622565b9050919050565b6000819050919050565b61066b83610636565b61067f61067782610658565b8484546105d0565b825550505050565b600090565b610694610687565b61069f818484610662565b505050565b5b818110156106c3576106b860008261068c565b6001810190506106a5565b5050565b601f821115610708576106d98161059e565b6106e2846105b3565b810160208510156106f1578190505b6107056106fd856105b3565b8301826106a4565b50505b505050565b600082821c905092915050565b600061072b6000198460080261070d565b1980831691505092915050565b6000610744838361071a565b9150826002028217905092915050565b61075d82610533565b67ffffffffffffffff811115610776576107756102dd565b5b610780825461056d565b61078b8282856106c7565b600060209050601f8311600181146107be57600084156107ac578287015190505b6107b68582610738565b86555061081e565b601f1984166107cc8661059e565b60005b828110156107f4578489015182556001820191506020850194506020810190506107cf565b86831015610811578489015161080d601f89168261071a565b8355505b6001600288020188555050505b50505050505056fea264697066735822122000e71519354e45dfb1a4b7a0dce895f1b8bf6200af9a8b6eda5c90162d891c6564736f6c63430008130033",
  "immutableReferences": {},
  "source": "// SPDX-License-Identifier: MIT\npragma solidity >=0.4.22 <0.9.0;\n\ncontract LandRegistration {\n\n    struct User {\n        address id;\n        string password;\n        string nationalId;\n    }\n\n    mapping(address => User) mUsers;\n\n    address private adminId;\n    address[] private users;\n\n    constructor() {\n        adminId = msg.sender;\n    }\n\n\n    function isAdmin() public view returns (bool){\n        return adminId == msg.sender;\n    }\n\n    function addUser(string memory _password, string memory _nationalId) public {\n        require(mUsers[msg.sender].id == address(0), \"User already registered\");\n        User storage u = mUsers[msg.sender];\n        u.id = msg.sender;\n        u.password = _password;\n        u.nationalId = _nationalId;\n\n        users.push(msg.sender);\n    }\n\n}\n",
  "sourcePath": "C:\\Users\\shami\\OneDrive\\Desktop\\LandReg-Chain\\client\\contracts\\LandRegistration.sol",
  "compiler": {
    "name": "solc",
    "version": "0.8.19+commit.7dd6d404.Emscripten.clang"
  },
  "schemaVersion": "3.4.13",
  "updatedAt": "2023-07-08T07:37:10.352Z",
  "networkType": "ethereum",
  "devdoc": {
    "kind": "dev",
    "methods": {},
    "version": 1
  },
  "userdoc": {
    "kind": "user",
    "methods": {},
    "version": 1
  }
}