{
  "contractName": "LandRegistration",
  "abi": [
    {
      "inputs": [],
      "stateMutability": "nonpayable",
      "type": "constructor"
    },
    {
      "anonymous": false,
      "inputs": [
        {
          "indexed": false,
          "internalType": "address",
          "name": "token",
          "type": "address"
        },
        {
          "indexed": false,
          "internalType": "address",
          "name": "owner",
          "type": "address"
        }
      ],
      "name": "addLandEvent",
      "type": "event"
    },
    {
      "inputs": [],
      "name": "isAdmin",
      "outputs": [
        {
          "internalType": "bool",
          "name": "",
          "type": "bool"
        }
      ],
      "stateMutability": "view",
      "type": "function",
      "constant": true
    },
    {
      "inputs": [
        {
          "internalType": "string",
          "name": "_password",
          "type": "string"
        },
        {
          "internalType": "string",
          "name": "_nationalId",
          "type": "string"
        }
      ],
      "name": "addUser",
      "outputs": [],
      "stateMutability": "nonpayable",
      "type": "function"
    },
    {
      "inputs": [],
      "name": "getAllUsers",
      "outputs": [
        {
          "components": [
            {
              "internalType": "address",
              "name": "id",
              "type": "address"
            },
            {
              "internalType": "string",
              "name": "password",
              "type": "string"
            },
            {
              "internalType": "string",
              "name": "nationalId",
              "type": "string"
            },
            {
              "internalType": "bool",
              "name": "isActive",
              "type": "bool"
            }
          ],
          "internalType": "struct LandRegistration.User[]",
          "name": "",
          "type": "tuple[]"
        }
      ],
      "stateMutability": "view",
      "type": "function",
      "constant": true
    },
    {
      "inputs": [
        {
          "internalType": "address",
          "name": "_id",
          "type": "address"
        }
      ],
      "name": "verifyUser",
      "outputs": [],
      "stateMutability": "nonpayable",
      "type": "function"
    },
    {
      "inputs": [
        {
          "internalType": "string",
          "name": "_password",
          "type": "string"
        }
      ],
      "name": "changePassword",
      "outputs": [],
      "stateMutability": "nonpayable",
      "type": "function"
    },
    {
      "inputs": [],
      "name": "isValidUser",
      "outputs": [
        {
          "internalType": "uint256",
          "name": "",
          "type": "uint256"
        }
      ],
      "stateMutability": "view",
      "type": "function",
      "constant": true
    },
    {
      "inputs": [
        {
          "internalType": "string",
          "name": "pwd",
          "type": "string"
        }
      ],
      "name": "login",
      "outputs": [
        {
          "internalType": "uint256",
          "name": "",
          "type": "uint256"
        }
      ],
      "stateMutability": "view",
      "type": "function",
      "constant": true
    },
    {
      "inputs": [
        {
          "internalType": "string",
          "name": "_pId",
          "type": "string"
        }
      ],
      "name": "addLand",
      "outputs": [],
      "stateMutability": "nonpayable",
      "type": "function"
    },
    {
      "inputs": [],
      "name": "getALlLands",
      "outputs": [
        {
          "internalType": "address[]",
          "name": "",
          "type": "address[]"
        }
      ],
      "stateMutability": "view",
      "type": "function",
      "constant": true
    }
  ],
  "bytecode": "0x60806040523480156200001157600080fd5b5033600160006101000a81548173ffffffffffffffffffffffffffffffffffffffff021916908373ffffffffffffffffffffffffffffffffffffffff1602179055506040518060400160405280600581526020017f61646d696e000000000000000000000000000000000000000000000000000000815250600290816200009991906200031a565b5062000401565b600081519050919050565b7f4e487b7100000000000000000000000000000000000000000000000000000000600052604160045260246000fd5b7f4e487b7100000000000000000000000000000000000000000000000000000000600052602260045260246000fd5b600060028204905060018216806200012257607f821691505b602082108103620001385762000137620000da565b5b50919050565b60008190508160005260206000209050919050565b60006020601f8301049050919050565b600082821b905092915050565b600060088302620001a27fffffffffffffffffffffffffffffffffffffffffffffffffffffffffffffffff8262000163565b620001ae868362000163565b95508019841693508086168417925050509392505050565b6000819050919050565b6000819050919050565b6000620001fb620001f5620001ef84620001c6565b620001d0565b620001c6565b9050919050565b6000819050919050565b6200021783620001da565b6200022f620002268262000202565b84845462000170565b825550505050565b600090565b6200024662000237565b620002538184846200020c565b505050565b5b818110156200027b576200026f6000826200023c565b60018101905062000259565b5050565b601f821115620002ca5762000294816200013e565b6200029f8462000153565b81016020851015620002af578190505b620002c7620002be8562000153565b83018262000258565b50505b505050565b600082821c905092915050565b6000620002ef60001984600802620002cf565b1980831691505092915050565b60006200030a8383620002dc565b9150826002028217905092915050565b6200032582620000a0565b67ffffffffffffffff811115620003415762000340620000ab565b5b6200034d825462000109565b6200035a8282856200027f565b600060209050601f8311600181146200039257600084156200037d578287015190505b620003898582620002fc565b865550620003f9565b601f198416620003a2866200013e565b60005b82811015620003cc57848901518255600182019150602085019450602081019050620003a5565b86831015620003ec5784890151620003e8601f891682620002dc565b8355505b6001600288020188555050505b505050505050565b61268f80620004116000396000f3fe60806040523480156200001157600080fd5b5060043610620000a05760003560e01c80637808ed91116200006f5780637808ed91146200013b578063af949df9146200015b578063b6db75a0146200017d578063e2842d79146200019f578063fbfec5f314620001c157620000a0565b8063079eaf3414620000a55780633a7d280c14620000c55780634d81312014620000fb5780634ff9cc51146200011b575b600080fd5b620000c36004803603810190620000bd919062000ed5565b620001e3565b005b620000e36004803603810190620000dd919062000f5a565b620003cb565b604051620000f2919062000fc6565b60405180910390f35b62000119600480360381019062000113919062001048565b6200063b565b005b62000139600480360381019062000133919062000f5a565b62000698565b005b62000159600480360381019062000153919062000f5a565b6200075b565b005b620001656200083a565b60405162000174919062000fc6565b60405180910390f35b6200018762000944565b60405162000196919062001097565b60405180910390f35b620001a96200099c565b604051620001b89190620012a1565b60405180910390f35b620001cb62000c81565b604051620001da919062001382565b60405180910390f35b600073ffffffffffffffffffffffffffffffffffffffff166000803373ffffffffffffffffffffffffffffffffffffffff1673ffffffffffffffffffffffffffffffffffffffff16815260200190815260200160002060000160009054906101000a900473ffffffffffffffffffffffffffffffffffffffff1673ffffffffffffffffffffffffffffffffffffffff1614620002b6576040517f08c379a0000000000000000000000000000000000000000000000000000000008152600401620002ad9062001407565b60405180910390fd5b60008060003373ffffffffffffffffffffffffffffffffffffffff1673ffffffffffffffffffffffffffffffffffffffff1681526020019081526020016000209050338160000160006101000a81548173ffffffffffffffffffffffffffffffffffffffff021916908373ffffffffffffffffffffffffffffffffffffffff160217905550828160010190816200034e91906200165f565b50818160020190816200036291906200165f565b506003339080600181540180825580915050600190039060005260206000200160009091909190916101000a81548173ffffffffffffffffffffffffffffffffffffffff021916908373ffffffffffffffffffffffffffffffffffffffff160217905550505050565b6000600160009054906101000a900473ffffffffffffffffffffffffffffffffffffffff1673ffffffffffffffffffffffffffffffffffffffff163373ffffffffffffffffffffffffffffffffffffffff160362000490576002604051602001620004379190620017e0565b604051602081830303815290604052805190602001208260405160200162000460919062001830565b604051602081830303815290604052805190602001200362000486576064905062000636565b6063905062000636565b600073ffffffffffffffffffffffffffffffffffffffff166000803373ffffffffffffffffffffffffffffffffffffffff1673ffffffffffffffffffffffffffffffffffffffff16815260200190815260200160002060000160009054906101000a900473ffffffffffffffffffffffffffffffffffffffff1673ffffffffffffffffffffffffffffffffffffffff160362000530576000905062000636565b6000803373ffffffffffffffffffffffffffffffffffffffff1673ffffffffffffffffffffffffffffffffffffffff168152602001908152602001600020600101604051602001620005839190620017e0565b6040516020818303038152906040528051906020012082604051602001620005ac919062001830565b604051602081830303815290604052805190602001200362000631576000803373ffffffffffffffffffffffffffffffffffffffff1673ffffffffffffffffffffffffffffffffffffffff16815260200190815260200160002060030160009054906101000a900460ff161562000627576001905062000636565b600b905062000636565b600990505b919050565b60016000808373ffffffffffffffffffffffffffffffffffffffff1673ffffffffffffffffffffffffffffffffffffffff16815260200190815260200160002060030160006101000a81548160ff02191690831515021790555050565b600160009054906101000a900473ffffffffffffffffffffffffffffffffffffffff1673ffffffffffffffffffffffffffffffffffffffff163373ffffffffffffffffffffffffffffffffffffffff160362000706578060029081620006ff91906200165f565b5062000758565b806000803373ffffffffffffffffffffffffffffffffffffffff1673ffffffffffffffffffffffffffffffffffffffff16815260200190815260200160002060010190816200075691906200165f565b505b50565b6000816040516200076c9062000d11565b6200077891906200188a565b604051809103906000f08015801562000795573d6000803e3d6000fd5b5090506004819080600181540180825580915050600190039060005260206000200160009091909190916101000a81548173ffffffffffffffffffffffffffffffffffffffff021916908373ffffffffffffffffffffffffffffffffffffffff1602179055507fd73514a8588d4e959f28b2f2de22836c8744dfcb1b828a4d9a6ec29e014b345081336040516200082e929190620018bf565b60405180910390a15050565b60003373ffffffffffffffffffffffffffffffffffffffff16600160009054906101000a900473ffffffffffffffffffffffffffffffffffffffff1673ffffffffffffffffffffffffffffffffffffffff16036200089c576001905062000941565b600073ffffffffffffffffffffffffffffffffffffffff166000803373ffffffffffffffffffffffffffffffffffffffff1673ffffffffffffffffffffffffffffffffffffffff16815260200190815260200160002060000160009054906101000a900473ffffffffffffffffffffffffffffffffffffffff1673ffffffffffffffffffffffffffffffffffffffff16146200093c576002905062000941565b600090505b90565b60003373ffffffffffffffffffffffffffffffffffffffff16600160009054906101000a900473ffffffffffffffffffffffffffffffffffffffff1673ffffffffffffffffffffffffffffffffffffffff1614905090565b6060600060038054905067ffffffffffffffff811115620009c257620009c162000d8e565b5b604051908082528060200260200182016040528015620009ff57816020015b620009eb62000d1f565b815260200190600190039081620009e15790505b50905060005b60038054905081101562000c79576000806003838154811062000a2d5762000a2c620018ec565b5b9060005260206000200160009054906101000a900473ffffffffffffffffffffffffffffffffffffffff1673ffffffffffffffffffffffffffffffffffffffff1673ffffffffffffffffffffffffffffffffffffffff1681526020019081526020016000206040518060800160405290816000820160009054906101000a900473ffffffffffffffffffffffffffffffffffffffff1673ffffffffffffffffffffffffffffffffffffffff1673ffffffffffffffffffffffffffffffffffffffff16815260200160018201805462000b059062001458565b80601f016020809104026020016040519081016040528092919081815260200182805462000b339062001458565b801562000b845780601f1062000b585761010080835404028352916020019162000b84565b820191906000526020600020905b81548152906001019060200180831162000b6657829003601f168201915b5050505050815260200160028201805462000b9f9062001458565b80601f016020809104026020016040519081016040528092919081815260200182805462000bcd9062001458565b801562000c1e5780601f1062000bf25761010080835404028352916020019162000c1e565b820191906000526020600020905b81548152906001019060200180831162000c0057829003601f168201915b505050505081526020016003820160009054906101000a900460ff16151515158152505082828151811062000c585762000c57620018ec565b5b6020026020010181905250808062000c70906200194a565b91505062000a05565b508091505090565b6060600480548060200260200160405190810160405280929190818152602001828054801562000d0757602002820191906000526020600020905b8160009054906101000a900473ffffffffffffffffffffffffffffffffffffffff1673ffffffffffffffffffffffffffffffffffffffff168152602001906001019080831162000cbc575b5050505050905090565b610cc2806200199883390190565b6040518060800160405280600073ffffffffffffffffffffffffffffffffffffffff16815260200160608152602001606081526020016000151581525090565b6000604051905090565b600080fd5b600080fd5b600080fd5b600080fd5b6000601f19601f8301169050919050565b7f4e487b7100000000000000000000000000000000000000000000000000000000600052604160045260246000fd5b62000dc88262000d7d565b810181811067ffffffffffffffff8211171562000dea5762000de962000d8e565b5b80604052505050565b600062000dff62000d5f565b905062000e0d828262000dbd565b919050565b600067ffffffffffffffff82111562000e305762000e2f62000d8e565b5b62000e3b8262000d7d565b9050602081019050919050565b82818337600083830152505050565b600062000e6e62000e688462000e12565b62000df3565b90508281526020810184848401111562000e8d5762000e8c62000d78565b5b62000e9a84828562000e48565b509392505050565b600082601f83011262000eba5762000eb962000d73565b5b813562000ecc84826020860162000e57565b91505092915050565b6000806040838503121562000eef5762000eee62000d69565b5b600083013567ffffffffffffffff81111562000f105762000f0f62000d6e565b5b62000f1e8582860162000ea2565b925050602083013567ffffffffffffffff81111562000f425762000f4162000d6e565b5b62000f508582860162000ea2565b9150509250929050565b60006020828403121562000f735762000f7262000d69565b5b600082013567ffffffffffffffff81111562000f945762000f9362000d6e565b5b62000fa28482850162000ea2565b91505092915050565b6000819050919050565b62000fc08162000fab565b82525050565b600060208201905062000fdd600083018462000fb5565b92915050565b600073ffffffffffffffffffffffffffffffffffffffff82169050919050565b6000620010108262000fe3565b9050919050565b620010228162001003565b81146200102e57600080fd5b50565b600081359050620010428162001017565b92915050565b60006020828403121562001061576200106062000d69565b5b6000620010718482850162001031565b91505092915050565b60008115159050919050565b62001091816200107a565b82525050565b6000602082019050620010ae600083018462001086565b92915050565b600081519050919050565b600082825260208201905092915050565b6000819050602082019050919050565b620010eb8162001003565b82525050565b600081519050919050565b600082825260208201905092915050565b60005b838110156200112d57808201518184015260208101905062001110565b60008484015250505050565b60006200114682620010f1565b620011528185620010fc565b9350620011648185602086016200110d565b6200116f8162000d7d565b840191505092915050565b62001185816200107a565b82525050565b6000608083016000830151620011a56000860182620010e0565b5060208301518482036020860152620011bf828262001139565b91505060408301518482036040860152620011db828262001139565b9150506060830151620011f260608601826200117a565b508091505092915050565b60006200120b83836200118b565b905092915050565b6000602082019050919050565b60006200122d82620010b4565b620012398185620010bf565b9350836020820285016200124d85620010d0565b8060005b858110156200128f57848403895281516200126d8582620011fd565b94506200127a8362001213565b925060208a0199505060018101905062001251565b50829750879550505050505092915050565b60006020820190508181036000830152620012bd818462001220565b905092915050565b600081519050919050565b600082825260208201905092915050565b6000819050602082019050919050565b6000620012ff8383620010e0565b60208301905092915050565b6000602082019050919050565b60006200132582620012c5565b620013318185620012d0565b93506200133e83620012e1565b8060005b8381101562001375578151620013598882620012f1565b975062001366836200130b565b92505060018101905062001342565b5085935050505092915050565b600060208201905081810360008301526200139e818462001318565b905092915050565b600082825260208201905092915050565b7f5573657220616c72656164792072656769737465726564000000000000000000600082015250565b6000620013ef601783620013a6565b9150620013fc82620013b7565b602082019050919050565b600060208201905081810360008301526200142281620013e0565b9050919050565b7f4e487b7100000000000000000000000000000000000000000000000000000000600052602260045260246000fd5b600060028204905060018216806200147157607f821691505b60208210810362001487576200148662001429565b5b50919050565b60008190508160005260206000209050919050565b60006020601f8301049050919050565b600082821b905092915050565b600060088302620014f17fffffffffffffffffffffffffffffffffffffffffffffffffffffffffffffffff82620014b2565b620014fd8683620014b2565b95508019841693508086168417925050509392505050565b6000819050919050565b6000620015406200153a620015348462000fab565b62001515565b62000fab565b9050919050565b6000819050919050565b6200155c836200151f565b620015746200156b8262001547565b848454620014bf565b825550505050565b600090565b6200158b6200157c565b6200159881848462001551565b505050565b5b81811015620015c057620015b460008262001581565b6001810190506200159e565b5050565b601f8211156200160f57620015d9816200148d565b620015e484620014a2565b81016020851015620015f4578190505b6200160c6200160385620014a2565b8301826200159d565b50505b505050565b600082821c905092915050565b6000620016346000198460080262001614565b1980831691505092915050565b60006200164f838362001621565b9150826002028217905092915050565b6200166a82620010f1565b67ffffffffffffffff81111562001686576200168562000d8e565b5b62001692825462001458565b6200169f828285620015c4565b600060209050601f831160018114620016d75760008415620016c2578287015190505b620016ce858262001641565b8655506200173e565b601f198416620016e7866200148d565b60005b828110156200171157848901518255600182019150602085019450602081019050620016ea565b868310156200173157848901516200172d601f89168262001621565b8355505b6001600288020188555050505b505050505050565b600081905092915050565b60008154620017608162001458565b6200176c818662001746565b945060018216600081146200178a5760018114620017a057620017d7565b60ff1983168652811515820286019350620017d7565b620017ab856200148d565b60005b83811015620017cf57815481890152600182019150602081019050620017ae565b838801955050505b50505092915050565b6000620017ee828462001751565b915081905092915050565b60006200180682620010f1565b62001812818562001746565b9350620018248185602086016200110d565b80840191505092915050565b60006200183e8284620017f9565b915081905092915050565b60006200185682620010f1565b620018628185620013a6565b9350620018748185602086016200110d565b6200187f8162000d7d565b840191505092915050565b60006020820190508181036000830152620018a6818462001849565b905092915050565b620018b98162001003565b82525050565b6000604082019050620018d66000830185620018ae565b620018e56020830184620018ae565b9392505050565b7f4e487b7100000000000000000000000000000000000000000000000000000000600052603260045260246000fd5b7f4e487b7100000000000000000000000000000000000000000000000000000000600052601160045260246000fd5b6000620019578262000fab565b91507fffffffffffffffffffffffffffffffffffffffffffffffffffffffffffffffff82036200198c576200198b6200191b565b5b60018201905091905056fe60806040523480156200001157600080fd5b5060405162000cc238038062000cc28339818101604052810190620000379190620002d3565b33600060010160006101000a81548173ffffffffffffffffffffffffffffffffffffffff021916908373ffffffffffffffffffffffffffffffffffffffff1602179055506000600201339080600181540180825580915050600190039060005260206000200160009091909190916101000a81548173ffffffffffffffffffffffffffffffffffffffff021916908373ffffffffffffffffffffffffffffffffffffffff160217905550306000800160006101000a81548173ffffffffffffffffffffffffffffffffffffffff021916908373ffffffffffffffffffffffffffffffffffffffff16021790555080600060030190816200013891906200056f565b505062000656565b6000604051905090565b600080fd5b600080fd5b600080fd5b600080fd5b6000601f19601f8301169050919050565b7f4e487b7100000000000000000000000000000000000000000000000000000000600052604160045260246000fd5b620001a9826200015e565b810181811067ffffffffffffffff82111715620001cb57620001ca6200016f565b5b80604052505050565b6000620001e062000140565b9050620001ee82826200019e565b919050565b600067ffffffffffffffff8211156200021157620002106200016f565b5b6200021c826200015e565b9050602081019050919050565b60005b83811015620002495780820151818401526020810190506200022c565b60008484015250505050565b60006200026c6200026684620001f3565b620001d4565b9050828152602081018484840111156200028b576200028a62000159565b5b6200029884828562000229565b509392505050565b600082601f830112620002b857620002b762000154565b5b8151620002ca84826020860162000255565b91505092915050565b600060208284031215620002ec57620002eb6200014a565b5b600082015167ffffffffffffffff8111156200030d576200030c6200014f565b5b6200031b84828501620002a0565b91505092915050565b600081519050919050565b7f4e487b7100000000000000000000000000000000000000000000000000000000600052602260045260246000fd5b600060028204905060018216806200037757607f821691505b6020821081036200038d576200038c6200032f565b5b50919050565b60008190508160005260206000209050919050565b60006020601f8301049050919050565b600082821b905092915050565b600060088302620003f77fffffffffffffffffffffffffffffffffffffffffffffffffffffffffffffffff82620003b8565b620004038683620003b8565b95508019841693508086168417925050509392505050565b6000819050919050565b6000819050919050565b6000620004506200044a62000444846200041b565b62000425565b6200041b565b9050919050565b6000819050919050565b6200046c836200042f565b620004846200047b8262000457565b848454620003c5565b825550505050565b600090565b6200049b6200048c565b620004a881848462000461565b505050565b5b81811015620004d057620004c460008262000491565b600181019050620004ae565b5050565b601f8211156200051f57620004e98162000393565b620004f484620003a8565b8101602085101562000504578190505b6200051c6200051385620003a8565b830182620004ad565b50505b505050565b600082821c905092915050565b6000620005446000198460080262000524565b1980831691505092915050565b60006200055f838362000531565b9150826002028217905092915050565b6200057a8262000324565b67ffffffffffffffff8111156200059657620005956200016f565b5b620005a282546200035e565b620005af828285620004d4565b600060209050601f831160018114620005e75760008415620005d2578287015190505b620005de858262000551565b8655506200064e565b601f198416620005f78662000393565b60005b828110156200062157848901518255600182019150602085019450602081019050620005fa565b868310156200064157848901516200063d601f89168262000531565b8355505b6001600288020188555050505b505050505050565b61065c80620006666000396000f3fe608060405234801561001057600080fd5b50600436106100365760003560e01c80634238d8631461003b578063880cdc3114610059575b600080fd5b610043610075565b6040516100509190610546565b60405180910390f35b610073600480360381019061006e9190610599565b61025b565b005b61007d610308565b60006040518060800160405290816000820160009054906101000a900473ffffffffffffffffffffffffffffffffffffffff1673ffffffffffffffffffffffffffffffffffffffff1673ffffffffffffffffffffffffffffffffffffffff1681526020016001820160009054906101000a900473ffffffffffffffffffffffffffffffffffffffff1673ffffffffffffffffffffffffffffffffffffffff1673ffffffffffffffffffffffffffffffffffffffff168152602001600282018054806020026020016040519081016040528092919081815260200182805480156101bb57602002820191906000526020600020905b8160009054906101000a900473ffffffffffffffffffffffffffffffffffffffff1673ffffffffffffffffffffffffffffffffffffffff1681526020019060010190808311610171575b505050505081526020016003820180546101d4906105f5565b80601f0160208091040260200160405190810160405280929190818152602001828054610200906105f5565b801561024d5780601f106102225761010080835404028352916020019161024d565b820191906000526020600020905b81548152906001019060200180831161023057829003601f168201915b505050505081525050905090565b80600060010160006101000a81548173ffffffffffffffffffffffffffffffffffffffff021916908373ffffffffffffffffffffffffffffffffffffffff1602179055506000600201819080600181540180825580915050600190039060005260206000200160009091909190916101000a81548173ffffffffffffffffffffffffffffffffffffffff021916908373ffffffffffffffffffffffffffffffffffffffff16021790555050565b6040518060800160405280600073ffffffffffffffffffffffffffffffffffffffff168152602001600073ffffffffffffffffffffffffffffffffffffffff16815260200160608152602001606081525090565b600073ffffffffffffffffffffffffffffffffffffffff82169050919050565b60006103878261035c565b9050919050565b6103978161037c565b82525050565b600081519050919050565b600082825260208201905092915050565b6000819050602082019050919050565b60006103d5838361038e565b60208301905092915050565b6000602082019050919050565b60006103f98261039d565b61040381856103a8565b935061040e836103b9565b8060005b8381101561043f57815161042688826103c9565b9750610431836103e1565b925050600181019050610412565b5085935050505092915050565b600081519050919050565b600082825260208201905092915050565b60005b8381101561048657808201518184015260208101905061046b565b60008484015250505050565b6000601f19601f8301169050919050565b60006104ae8261044c565b6104b88185610457565b93506104c8818560208601610468565b6104d181610492565b840191505092915050565b60006080830160008301516104f4600086018261038e565b506020830151610507602086018261038e565b506040830151848203604086015261051f82826103ee565b9150506060830151848203606086015261053982826104a3565b9150508091505092915050565b6000602082019050818103600083015261056081846104dc565b905092915050565b600080fd5b6105768161037c565b811461058157600080fd5b50565b6000813590506105938161056d565b92915050565b6000602082840312156105af576105ae610568565b5b60006105bd84828501610584565b91505092915050565b7f4e487b7100000000000000000000000000000000000000000000000000000000600052602260045260246000fd5b6000600282049050600182168061060d57607f821691505b6020821081036106205761061f6105c6565b5b5091905056fea264697066735822122014dff1f667397600cb73ef6c968f1cbba563cb31490ed5cc33a78f32d2191eb264736f6c63430008130033a26469706673582212202735e501acf1cdbc2f19e030d85bc0c6ff1d00d95d4f722de9a0b33d5309c3b764736f6c63430008130033",
  "immutableReferences": {},
  "source": "// SPDX-License-Identifier: MIT\r\npragma solidity >=0.4.22 <0.9.0;\r\n\r\nimport \"./Land.sol\";\r\n\r\ncontract LandRegistration {\r\n\r\n    struct User {\r\n        address id;\r\n        string password;\r\n        string nationalId;\r\n        bool isActive;\r\n    }\r\n\r\n    mapping(address => User) private mUsers;\r\n\r\n    address private adminId;\r\n    string private adminPwd;\r\n    address[] private users;\r\n    address[] private lands;\r\n\r\n    event addLandEvent(address token, address owner);\r\n\r\n    constructor() {\r\n        adminId = msg.sender;\r\n        adminPwd = \"admin\";\r\n    }\r\n\r\n    function isAdmin() public view returns (bool){\r\n        return adminId == msg.sender;\r\n    }\r\n\r\n    function addUser(string memory _password, string memory _nationalId) public {\r\n        require(mUsers[msg.sender].id == address(0), \"User already registered\");\r\n        User storage u = mUsers[msg.sender];\r\n        u.id = msg.sender;\r\n        u.password = _password;\r\n        u.nationalId = _nationalId;\r\n\r\n        users.push(msg.sender);\r\n    }\r\n\r\n    function getAllUsers() public view returns (User[] memory)  {\r\n        User[] memory u = new User[](users.length);\r\n        for (uint i = 0; i < users.length; i++) {\r\n            u[i] = (mUsers[users[i]]);\r\n        }\r\n        return u;\r\n    }\r\n\r\n    function verifyUser(address _id) public {\r\n        mUsers[_id].isActive = true;\r\n    }\r\n\r\n    function changePassword(string memory _password) public {\r\n        if (msg.sender == adminId) {\r\n            adminPwd = _password;\r\n        } else {\r\n            mUsers[msg.sender].password = _password;\r\n        }\r\n    }\r\n\r\n    function isValidUser() public view returns (uint) {\r\n        if (adminId == msg.sender)\r\n            return 1;\r\n        else if (mUsers[msg.sender].id != address(0))\r\n            return 2;\r\n        else return 0;\r\n    }\r\n\r\n\r\n    function login(string memory pwd) public view returns (uint){\r\n        if (msg.sender == adminId) {\r\n            if (keccak256(abi.encodePacked(pwd)) == keccak256(abi.encodePacked(adminPwd)))\r\n                return 100;\r\n\r\n                // admin login successfully\r\n            else\r\n                return 99; // incorrect admin password\r\n        }\r\n        else {\r\n            if (mUsers[msg.sender].id == address(0)) return 0; // user not registered\r\n            if (keccak256(abi.encodePacked(pwd)) == keccak256(abi.encodePacked(mUsers[msg.sender].password))) {\r\n                if (mUsers[msg.sender].isActive)\r\n                    return 1; // user login successfully\r\n                else return 11;\r\n            }\r\n            else return 9; // incorrect password\r\n        }\r\n    }\r\n\r\n    function addLand(string memory _pId) public {\r\n        Land land = new Land(_pId);\r\n        lands.push(address(land));\r\n\r\n        emit addLandEvent(address(land), msg.sender);\r\n    }\r\n\r\n    function getALlLands() public view returns (address[] memory){\r\n        return lands;\r\n    }\r\n\r\n\r\n}\r\n",
  "sourcePath": "C:\\Users\\USER\\Desktop\\Final project\\Client\\contracts\\LandRegistration.sol",
  "compiler": {
    "name": "solc",
    "version": "0.8.19+commit.7dd6d404.Emscripten.clang"
  },
  "schemaVersion": "3.4.13",
  "updatedAt": "2023-10-14T14:56:55.284Z",
  "networkType": "ethereum",
  "devdoc": {
    "kind": "dev",
    "methods": {},
    "version": 1
  },
  "userdoc": {
    "kind": "user",
    "methods": {},
    "version": 1
  }
}